---
eip: 2481
title: eth/66 请求标识符
description: 为所有 eth 协议的请求引入请求 ID
author: Christoph Burgdorf (@cburgdorf)
discussions-to: https://ethereum-magicians.org/t/eip-2481-eth-66-request-identifiers/12132
status: Final
type: Standards Track
category: Networking
created: 2020-01-17
requires: 2464
---

## 摘要

`eth` 协议定义了用于在以太坊节点之间交换数据的各种请求和响应命令。例如，为了向对等节点请求特定的一组区块头，节点发送 [`GetBlockHeaders`](https://github.com/ethereum/devp2p/blob/40ab248bf7e017e83cc9812a4e048446709623e8/caps/eth.md#getblockheaders-0x03) 命令。

*引用自 [`GetBlockHeaders` 规范定义](https://github.com/ethereum/devp2p/blob/40ab248bf7e017e83cc9812a4e048446709623e8/caps/eth.md#getblockheaders-0x03)：*

>`[block: {P, B_32}, maxHeaders: P, skip: P, reverse: P in {0, 1}]`

>要求对等方返回 `BlockHeaders` 消息。回复必须包含数量递增的区块头，当 `reverse` 为 `0` 时递增，为 `1` 时递减，间隔为 `skip` 个区块，从区块 `block`（用数字或哈希表示）开始，且最多包含 `maxHeaders` 项。

接收 `GetBlockHeaders` 命令的节点应相应地用 [`BlockHeaders`](https://github.com/ethereum/devp2p/blob/40ab248bf7e017e83cc9812a4e048446709623e8/caps/eth.md#blockheaders-0x04) 响应命令来回答。

*引用自 [`BlockHeaders` 规范定义](https://github.com/ethereum/devp2p/blob/40ab248bf7e017e83cc9812a4e048446709623e8/caps/eth.md#blockheaders-0x04)：*

>`[blockHeader_0, blockHeader_1, ...]`

>回复 `GetBlockHeaders`。列表中的项（跟随消息 ID）是以太坊主规范中描述的区块头，之前在 GetBlockHeaders 消息中请求过。如果没有找到请求的区块头，则可以有效地包含零个区块头。单个消息中可以请求的区块头数量可能受实现定义的限制。

让我们考虑一个客户端向其一个对等节点发出多个同时的 `GetBlockHeaders` 请求。由于其性质，无法保证预期的响应按发送顺序到达。为了将传入的响应与正确的请求关联，客户端必须遍历所有待处理请求，尝试根据其内容与传入响应进行匹配。

这对于模糊的响应（例如空响应）可能特别棘手。

本 EIP 提议更改 `GetBlockHeaders` 和 `BlockHeaders` 命令以包含 `request_id`。

`request_id` 是一个由客户端在发出请求时设置的 64 位整数。在响应方，来自传入请求的完全相同的 `request_id` 被放回响应对象中。

此更改允许请求客户端将传入响应**直接**匹配回其待处理请求，而无需遍历所有待处理请求以检查它们是否可能基于响应数据匹配。

所选的请求/响应对作为 `eth` 网络协议中许多类似请求/响应对的示例。

## 动机

在 `eth` 协议的请求/响应对中缺乏请求标识符给每个以太坊客户端带来了不必要的代码复杂性负担。这也使得通信稍微不那么高效。另一个论点是，添加请求标识符使协议更符合 `les` 协议，而 `les` 协议**确实**已经为每个请求/响应对定义了请求标识符。

## 规范

更改 `eth` 协议中的以下消息类型：

* `GetBlockHeaders (0x03)`
   * **当前 (eth/65):** `[block: {P, B_32}, maxHeaders: P, skip: P, reverse: P in {0, 1}]`
   * **然后 (eth/66)**: `[request_id: P, [block: {P, B_32}, maxHeaders: P, skip: P, reverse: P in {0, 1}]]`
* `BlockHeaders (0x04)`
   * **当前 (eth/65):** `[blockHeader_0, blockHeader_1, ...]`
   * **然后 (eth/66)**: `[request_id: P, [blockHeader_0, blockHeader_1, ...]]`
* `GetBlockBodies (0x05)`
   * **当前 (eth/65):** `[hash_0: B_32, hash_1: B_32, ...]`
   * **然后 (eth/66)**: `[request_id: P, [hash_0: B_32, hash_1: B_32, ...]]`
* `GetPooledTransactions (0x09)`:
   * **当前 (eth/65)**`[hash_0: B_32, hash_1: B_32, ...]`
   * **然后 (eth/66)**`[request_id: P, [hash_0: B_32, hash_1: B_32, ...]]`
* `PooledTransactions (0x0a)`:
   * **当前 (eth/65)**`[[nonce: P, receivingAddress: B_20, value: P, ...], ...]`
   * **然后 (eth/66)**`[request_id: P, [[nonce: P, receivingAddress: B_20, value: P, ...], ...]]`
* `BlockBodies (0x06)`
   * **当前 (eth/65):** `[hash_0: B_32, hash_1: B_32, ...]`
   * **然后 (eth/66)**: `[request_id: P, [hash_0: B_32, hash_1: B_32, ...]]`
* `GetNodeData (0x0d)`
   * **当前 (eth/65):** `[hash_0: B_32, hash_1: B_32, ...]`
   * **然后 (eth/66)**: `[request_id: P, [hash_0: B_32, hash_1: B_32, ...]]`
* `NodeData (0x0e)`
   * **当前 (eth/65):** `[value_0: B, value_1: B, ...]`
   * **然后 (eth/66)**: `[request_id: P, [value_0: B, value_1: B, ...]]`
* `GetReceipts (0x0f)`
   * **当前 (eth/65):** `[blockHash_0: B_32, blockHash_1: B_32, ...]`
   * **然后 (eth/66)**: `[request_id: P, [blockHash_0: B_32, blockHash_1: B_32, ...]]`
* `Receipts (0x10)`
   * **当前 (eth/65):** `[[receipt_0, receipt_1], ...]`
   * **然后 (eth/66)**: `[request_id: P, [[receipt_0, receipt_1], ...]]`


具体来说，每个命令的更改方式如下：

1. 创建一个列表，`request_id` 为第一个元素。
2. 将第二个元素设为定义当前方案中整个命令的列表。

`request_id` 具有以下特征：

* 64 位整数
* 不需要是顺序的（可以是随机的）
* 允许重复

## 理由

**问：效率提升可能会鼓励客户端向其对等方发送过多的同时请求**

对等方可以随时限制或断开连接，如果他们觉得没有得到良好的对待。这与今天的情况相同。

**问：如果 `les` 已经像这样定义了命令，为什么不直接使用 `les` 协议？**

实际上，提供 `les` 协议的对等方在网络中更难找到。原因多种多样，但可能归结为客户端默认设置、不成熟的实现或缺乏激励。

**问：网络今天运作良好，这不是在增加冗余吗？**

这在每个命令中添加了一个整数，同时减少了代码复杂性并提高了网络效率。这个添加似乎是合理的。

**问：为什么不要求请求 ID 是顺序的？**

假设请求 ID 总是从连接时开始计数为 `0`，当连接丢失且客户端重新连接并重新开始使用之前会话中使用的相同请求 ID 时，事情会变得混乱。

**问：为什么允许重复的请求 ID？**

主要好处是实现方面的灵活性和简单性。客户端可以决定在多个不同请求类型之间共享相同的 ID，因为它们本质上是分开的。客户端甚至可以决定完全不依赖请求 ID，因此在所有请求中使用相同的常量请求 ID。

**问：为什么选择 64 位整数作为请求 ID**

选择 64 位整数是为了与 `les` 协议保持兼容。
## 向后兼容性

此 EIP 以向后不兼容的方式扩展了 `eth` 协议，并需要推出新版本 `eth/66`。然而，`devp2p` 支持同时运行多个相同的传输协议版本，因此推出 `eth/66` 不需要客户端协调，因为未更新的客户端可以继续使用 `eth/65`。

此 EIP 不改变共识引擎，因此*不*需要硬分叉。

## 测试用例

这些测试用例涵盖了所有重新定义的消息类型的 RLP 编码，其中 `rlp` 部分是 `data` 部分定义的消息的 rlp 编码。 

```json
{
  "type": "GetBlockHeadersPacket66",
  "rlp": "0xe8820457e4a000000000000000000000000000000000000000000000000000000000deadc0de050580",
  "data": {
    "RequestId": 1111,
    "Origin": {
      "Hash": "0x00000000000000000000000000000000000000000000000000000000deadc0de",
      "Number": 0
    },
    "Amount": 5,
    "Skip": 5,
    "Reverse": false
  }
}
```

```json
{
  "type": "GetBlockHeadersPacket66",
  "rlp": "0xca820457c682270f050580",
  "data": {
    "RequestId": 1111,
    "Origin": {
      "Hash": "0x0000000000000000000000000000000000000000000000000000000000000000",
      "Number": 9999
    },
    "Amount": 5,
    "Skip": 5,
    "Reverse": false
  }
}
```

```json
{
  "type": "BlockHeadersPacket66",
  "rlp": "0xf90202820457f901fcf901f9a00000000000000000000000000000000000000000000000000000000000000000a00000000000000000000000000000000000000000000000000000000000000000940000000000000000000000000000000000000000a00000000000000000000000000000000000000000000000000000000000000000a00000000000000000000000000000000000000000000000000000000000000000a00000000000000000000000000000000000000000000000000000000000000000b90100000000000000000000000000000000000000000000000000000000000000000000000000000000000000000000000000000000000000000000000000000000000000000000000000000000000000000000000000000000000000000000000000000000000000000000000000000000000000000000000000000000000000000000000000000000000000000000000000000000000000000000000000000000000000000000000000000000000000000000000000000000000000000000000000000000000000000000000000000000000000000000000000000000000000000000000000000000000000000000000000000000000000000000000000000000008208ae820d0582115c8215b3821a0a827788a00000000000000000000000000000000000000000000000000000000000000000880000000000000000",
  "data": {
    "RequestId": 1111,
    "BlockHeadersPacket": [
      {
        "parentHash": "0x0000000000000000000000000000000000000000000000000000000000000000",
        "sha3Uncles": "0x0000000000000000000000000000000000000000000000000000000000000000",
        "miner": "0x0000000000000000000000000000000000000000",
        "stateRoot": "0x0000000000000000000000000000000000000000000000000000000000000000",
        "transactionsRoot": "0x0000000000000000000000000000000000000000000000000000000000000000",
        "receiptsRoot": "0x0000000000000000000000000000000000000000000000000000000000000000",
        "logsBloom": "0x00000000000000000000000000000000000000000000000000000000000000000000000000000000000000000000000000000000000000000000000000000000000000000000000000000000000000000000000000000000000000000000000000000000000000000000000000000000000000000000000000000000000000000000000000000000000000000000000000000000000000000000000000000000000000000000000000000000000000000000000000000000000000000000000000000000000000000000000000000000000000000000000000000000000000000000000000000000000000000000000000000000000000000000000000000000",
        "difficulty": "0x8ae",
        "number": "0xd05",
        "gasLimit": "0x115c",
        "gasUsed": "0x15b3",
        "timestamp": "0x1a0a",
        "extraData": "0x7788",
        "mixHash": "0x0000000000000000000000000000000000000000000000000000000000000000",
        "nonce": "0x0000000000000000",
        "hash": "0x8c2f2af15b7b563b6ab1e09bed0e9caade7ed730aec98b70a993597a797579a9"
      }
    ]
  }
}
```

```json
{
  "type": "GetBlockBodiesPacket66",
  "rlp": "0xf847820457f842a000000000000000000000000000000000000000000000000000000000deadc0dea000000000000000000000000000000000000000000000000000000000feedbeef",
  "data": {
    "RequestId": 1111,
    "GetBlockBodiesPacket": [
      "0x00000000000000000000000000000000000000000000000000000000deadc0de",
      "0x00000000000000000000000000000000000000000000000000000000feedbeef"
    ]
  }
}
```

```json
{
  "type": "BlockBodiesPacket66",
  "rlp": "0xf902dc820457f902d6f902d3f8d2f867088504a817c8088302e2489435353535353535353535353535353535353535358202008025a064b1702d9298fee62dfeccc57d322a463ad55ca201256d01f62b45b2e1c21c12a064b1702d9298fee62dfeccc57d322a463ad55ca201256d01f62b45b2e1c21c10f867098504a817c809830334509435353535353535353535353535353535353535358202d98025a052f8f61201b2b11a78d6e866abc9c3db2ae8631fa656bfe5cb53668255367afba052f8f61201b2b11a78d6e866abc9c3db2ae8631fa656bfe5cb53668255367afbf901fcf901f9a00000000000000000000000000000000000000000000000000000000000000000a00000000000000000000000000000000000000000000000000000000000000000940000000000000000000000000000000000000000a00000000000000000000000000000000000000000000000000000000000000000a00000000000000000000000000000000000000000000000000000000000000000a00000000000000000000000000000000000000000000000000000000000000000b90100000000000000000000000000000000000000000000000000000000000000000000000000000000000000000000000000000000000000000000000000000000000000000000000000000000000000000000000000000000000000000000000000000000000000000000000000000000000000000000000000000000000000000000000000000000000000000000000000000000000000000000000000000000000000000000000000000000000000000000000000000000000000000000000000000000000000000000000000000000000000000000000000000000000000000000000000000000000000000000000000000000000000000000000000000000008208ae820d0582115c8215b3821a0a827788a00000000000000000000000000000000000000000000000000000000000000000880000000000000000",
  "data": {
    "RequestId": 1111,
    "BlockBodiesPacket": [
      {
        "Transactions": [
          {
            "nonce": "0x8",
            "gasPrice": "0x4a817c808",
            "gas": "0x2e248",
            "to": "0x3535353535353535353535353535353535353535",
            "value": "0x200",
            "input": "0x",
            "v": "0x25",
            "r": "0x64b1702d9298fee62dfeccc57d322a463ad55ca201256d01f62b45b2e1c21c12",
            "s": "0x64b1702d9298fee62dfeccc57d322a463ad55ca201256d01f62b45b2e1c21c10",
            "hash": "0x588df025c4c2d757d3e314bd3dfbfe352687324e6b8557ad1731585e96928aed"
          },
          {
            "nonce": "0x9",
            "gasPrice": "0x4a817c809",
            "gas": "0x33450",
            "to": "0x3535353535353535353535353535353535353535",
            "value": "0x2d9",
            "input": "0x",
            "v": "0x25",
            "r": "0x52f8f61201b2b11a78d6e866abc9c3db2ae8631fa656bfe5cb53668255367afb",
            "s": "0x52f8f61201b2b11a78d6e866abc9c3db2ae8631fa656bfe5cb53668255367afb",
            "hash": "0xf39c7dac06a9f3abf09faf5e30439a349d3717611b3ed337cd52b0d192bc72da"
          }
        ],
        "Uncles": [
          {
            "parentHash": "0x0000000000000000000000000000000000000000000000000000000000000000",
            "sha3Uncles": "0x0000000000000000000000000000000000000000000000000000000000000000",
            "miner": "0x0000000000000000000000000000000000000000",
            "stateRoot": "0x0000000000000000000000000000000000000000000000000000000000000000",
            "transactionsRoot": "0x0000000000000000000000000000000000000000000000000000000000000000",
            "receiptsRoot": "0x0000000000000000000000000000000000000000000000000000000000000000",
            "logsBloom": "0x00000000000000000000000000000000000000000000000000000000000000000000000000000000000000000000000000000000000000000000000000000000000000000000000000000000000000000000000000000000000000000000000000000000000000000000000000000000000000000000000000000000000000000000000000000000000000000000000000000000000000000000000000000000000000000000000000000000000000000000000000000000000000000000000000000000000000000000000000000000000000000000000000000000000000000000000000000000000000000000000000000000000000000000000000000000",
            "difficulty": "0x8ae",
            "number": "0xd05",
            "gasLimit": "0x115c",
            "gasUsed": "0x15b3",
            "timestamp": "0x1a0a",
            "extraData": "0x7788",
            "mixHash": "0x0000000000000000000000000000000000000000000000000000000000000000",
            "nonce": "0x0000000000000000",
            "hash": "0x8c2f2af15b7b563b6ab1e09bed0e9caade7ed730aec98b70a993597a797579a9"
          }
        ]
      }
    ]
  }
}
```

```json
{
  "type": "GetNodeDataPacket66",
  "rlp": "0xf847820457f842a000000000000000000000000000000000000000000000000000000000deadc0dea000000000000000000000000000000000000000000000000000000000feedbeef",
  "data": {
    "RequestId": 1111,
    "GetNodeDataPacket": [
      "0x00000000000000000000000000000000000000000000000000000000deadc0de",
      "0x00000000000000000000000000000000000000000000000000000000feedbeef"
    ]
  }
}
```

```json
{
  "type": "NodeDataPacket66",
  "rlp": "0xce820457ca84deadc0de84feedbeef",
  "data": {
    "RequestId": 1111,
    "NodeDataPacket": [
      "0xdeadc0de",
      "0xfeedbeef"
    ]
  }
}
```

```json
{
  "type": "GetReceiptsPacket66",
  "rlp": "0xf847820457f842a000000000000000000000000000000000000000000000000000000000deadc0dea000000000000000000000000000000000000000000000000000000000feedbeef",
  "data": {
    "RequestId": 1111,
    "GetReceiptsPacket": [
      "0x00000000000000000000000000000000000000000000000000000000deadc0de",
      "0x00000000000000000000000000000000000000000000000000000000feedbeef"
    ]
  }
}
```

```json
{
  "type": "ReceiptsPacket66",
  "rlp": "0xf90172820457f9016cf90169f901668001b9010000000000000000000000000000000000000000000000000000000000000000000000000000000000000000000000000000000000000000000000000000000000000000000000000000000000000000000000000000000000000000000000000000000000000000000000000000000000000000000000000000000000000000000000000000000000000000000000000000000000000000000000000000000000000000000000000000000000000000000000000000000000000000000000000000000000000000000000000000000000000000000000000000000000000000000000000000000000000000000000000000000000000000000000000000000000f85ff85d940000000000000000000000000000000000000011f842a0000000000000000000000000000000000000000000000000000000000000deada0000000000000000000000000000000000000000000000000000000000000beef830100ff",
  "data": {
    "RequestId": 1111,
    "ReceiptsPacket": [
      [
        {
          "root": "0x",
          "status": "0x0",
          "cumulativeGasUsed": "0x1",
          "logsBloom": "0x00000000000000000000000000000000000000000000000000000000000000000000000000000000000000000000000000000000000000000000000000000000000000000000000000000000000000000000000000000000000000000000000000000000000000000000000000000000000000000000000000000000000000000000000000000000000000000000000000000000000000000000000000000000000000000000000000000000000000000000000000000000000000000000000000000000000000000000000000000000000000000000000000000000000000000000000000000000000000000000000000000000000000000000000000000000",
          "logs": [
            {
              "address": "0x0000000000000000000000000000000000000011",
              "topics": [
                "0x000000000000000000000000000000000000000000000000000000000000dead",
                "0x000000000000000000000000000000000000000000000000000000000000beef"
              ],
              "data": "0x0100ff",
              "blockNumber": "0x0",
              "transactionHash": "0x0000000000000000000000000000000000000000000000000000000000000000",
              "transactionIndex": "0x0",
              "blockHash": "0x0000000000000000000000000000000000000000000000000000000000000000",
              "logIndex": "0x0",
              "removed": false
            }
          ],
          "transactionHash": "0x00000000000000000000000000000000000000000000000000000000deadc0de",
          "contractAddress": "0x0000000000000000000000000000000000011111",
          "gasUsed": "0x1b207",
          "blockHash": "0x0000000000000000000000000000000000000000000000000000000000000000",
          "transactionIndex": "0x0"
        }
      ]
    ]
  }
}
```

```json
{
  "type": "GetPooledTransactionsPacket66",
  "rlp": "0xf847820457f842a000000000000000000000000000000000000000000000000000000000deadc0dea000000000000000000000000000000000000000000000000000000000feedbeef",
  "data": {
    "RequestId": 1111,
    "GetPooledTransactionsPacket": [
      "0x00000000000000000000000000000000000000000000000000000000deadc0de",
      "0x00000000000000000000000000000000000000000000000000000000feedbeef"
    ]
  }
}
```

```json
{
  "type": "PooledTransactionsPacket66",
  "rlp": "0xf8d7820457f8d2f867088504a817c8088302e2489435353535353535353535353535353535353535358202008025a064b1702d9298fee62dfeccc57d322a463ad55ca201256d01f62b45b2e1c21c12a064b1702d9298fee62dfeccc57d322a463ad55ca201256d01f62b45b2e1c21c10f867098504a817c809830334509435353535353535353535353535353535353535358202d98025a052f8f61201b2b11a78d6e866abc9c3db2ae8631fa656bfe5cb53668255367afba052f8f61201b2b11a78d6e866abc9c3db2ae8631fa656bfe5cb53668255367afb",
  "data": {
    "RequestId": 1111,
    "PooledTransactionsPacket": [
      {
        "nonce": "0x8",
        "gasPrice": "0x4a817c808",
        "gas": "0x2e248",
        "to": "0x3535353535353535353535353535353535353535",
        "value": "0x200",
        "input": "0x",
        "v": "0x25",
        "r": "0x64b1702d9298fee62dfeccc57d322a463ad55ca201256d01f62b45b2e1c21c12",
        "s": "0x64b1702d9298fee62dfeccc57d322a463ad55ca201256d01f62b45b2e1c21c10",
        "hash": "0x588df025c4c2d757d3e314bd3dfbfe352687324e6b8557ad1731585e96928aed"
      },
      {
        "nonce": "0x9",
        "gasPrice": "0x4a817c809",
        "gas": "0x33450",
        "to": "0x3535353535353535353535353535353535353535",
        "value": "0x2d9",
        "input": "0x",
        "v": "0x25",
        "r": "0x52f8f61201b2b11a78d6e866abc9c3db2ae8631fa656bfe5cb53668255367afb",
        "s": "0x52f8f61201b2b11a78d6e866abc9c3db2ae8631fa656bfe5cb53668255367afb",
        "hash": "0xf39c7dac06a9f3abf09faf5e30439a349d3717611b3ed337cd52b0d192bc72da"
      }
    ]
  }
}
```

## 安全考虑

无

## 版权
通过 [CC0](../LICENSE.md) 放弃版权及相关权利。