---
eip: 155
title: 简单重放攻击保护
author: Vitalik Buterin (@vbuterin)
type: 标准跟踪
category: 核心
status: 最终
created: 2016-10-14
---

### 硬分叉
[Spurious Dragon](./eip-607.md)

### 参数
- `FORK_BLKNUM`: 2,675,000
- `CHAIN_ID`: 1 (主网)

### 规范

如果 `block.number >= FORK_BLKNUM` 且 `CHAIN_ID` 可用，则在计算交易的哈希以进行签名时，应该哈希九个 rlp 编码元素 `(nonce, gasprice, startgas, to, value, data, chainid, 0, 0)`，而不是仅哈希六个 rlp 编码元素 `(nonce, gasprice, startgas, to, value, data)`。如果这样做，则签名的 `v` **必须** 设置为 `{0,1} + CHAIN_ID * 2 + 35`，其中 `{0,1}` 是 secp256k1 签名过程中曲线点的 `y` 值的奇偶性，`r` 是 x 值。如果选择仅哈希 6 个值，则 `v` 继续设置为 `{0,1} + 27`，如之前所述。

如果 `block.number >= FORK_BLKNUM` 且 `v = CHAIN_ID * 2 + 35` 或 `v = CHAIN_ID * 2 + 36`，则在计算交易的哈希以进行恢复时，应该哈希九个 rlp 编码元素 `(nonce, gasprice, startgas, to, value, data, chainid, 0, 0)`，而不是六个 rlp 编码元素 `(nonce, gasprice, startgas, to, value, data)`。当前使用 `v = 27` 和 `v = 28` 的签名方案仍然有效，并继续按照之前的规则操作。

### 示例

考虑一个交易，`nonce = 9`，`gasprice = 20 * 10**9`，`startgas = 21000`，`to = 0x3535353535353535353535353535353535353535`，`value = 10**18`，`data=''`（空）。

“签名数据”变为：

```
0xec098504a817c800825208943535353535353535353535353535353535353535880de0b6b3a764000080018080
```

“签名哈希”变为：

```
0xdaf5a779ae972f972197303d7b574746c7ef83eadac0f2791ad23db92e4c8e53
```

如果交易使用私钥 `0x4646464646464646464646464646464646464646464646464646464646464646` 签名，则 v,r,s 值变为：

```
(37, 18515461264373351373200002665853028612451056578545711640558177340181847433846, 46948507304638947509940763649030358759909902576025900602547168820602576006531)
```

注意使用了 37 而不是 27。签名的交易将变为：

```
0xf86c098504a817c800825208943535353535353535353535353535353535353535880de0b6b3a76400008025a028ef61340bd939bc2195fe537567866003e1a15d3c71ff63e1590620aa636276a067cbe9d8997f761aecb703304b3800ccf555c9f3dc64214b297fb1966a3b6d83
```

### 理由

这将提供一种在以太坊上发送交易的方法，而在 ETC 或 Morden 测试网中无效。鼓励 ETC 采用此 EIP，但将 `CHAIN_ID` 替换为不同的值，所有未来的测试网、联盟链和其他以太坊也鼓励采用此 EIP，将 `CHAIN_ID` 替换为唯一值。

### 链 ID 列表：

| `CHAIN_ID`     | 链                                     |
| ---------------| ---------------------------------------|
| 1              | 以太坊主网                             |
| 2              | Morden（已弃用），Expanse 主网        |
| 3              | Ropsten                                |
| 4              | Rinkeby                                |
| 5              | Goerli                                 |
| 42             | Kovan                                  |
| 1337           | Geth 私有链（默认）                    |


在 [chainid.network](https://chainid.network) 上查找更多链 ID，并为 [ethereum-lists/chains](https://github.com/ethereum-lists/chains) 贡献。